:020000040800F2
:100000001806002009010008611D0008E11C000815
:100010005D1D0008D5120008C12B0008000000007B
:100020000000000000000000000000005125000852
:100030007D16000800000000E91D000829270008BF
:100040002301000823010008230100082301000800
:1000500023010008230100082301000823010008F0
:1000600023010008230100082301000823010008E0
:1000700023010008230100082301000823010008D0
:1000800023010008230100082301000823010008C0
:1000900023010008230100082301000823010008B0
:1000A00023010008230100082301000823010008A0
:1000B00023010008952700083D28000823010008B7
:1000C0002301000823010008230100082301000880
:1000D00023010008A129000823010008D5290008F0
:1000E000C116000819200008230100082301000898
:1000F00023010008DFF80CD000F044FB0048004763
:10010000FD300008180600200648804706480047D2
:10011000FEE7FEE7FEE7FEE7FEE7FEE7FEE7FEE7B7
:10012000FEE7FEE72D270008F500000830B505467C
:100130002A460B4612F8010B13F8014B08B1A042F6
:10014000F8D01CB1002802D06D1CF1E7284630BD64
:10015000F0B480EA0102D40F4200B2EB410F02D2A8
:100160000246084611464A0042D0C30DDDB2C1F333
:10017000C752AD1A202D35DAC1F3160141F4000241
:1001800004B15242C5F1200602FA06F12A41104498
:10019000B3EBD05F23D0C4B1012DA0EBC35009DC79
:1001A000F0BC4FF0004202EAC352DBB200F500009F
:1001B00000F05CBA400000F1807000EBC350A0F189
:1001C000807040EAD170490009E0490841EAC071F5
:1001D000A0EBC35000F50000400800EBC350F0BC9A
:1001E00000F03BBA6142012202EB4101001BF6E73D
:1001F000F0BC704781F00041AAE780F00040A7E71B
:100200002DE9FE4F804681EA0300C00F0C460090A6
:1002100021F0004123F00045B8EB0200A94105D2CE
:100220004046214690461C460B46024623F00040BD
:10023000104347D0270DC7F30A00C3F30A510290B9
:10024000401A019040286BDAC3F3130040F4801B7E
:100250000098924620B10023D2EB030A63EB0B0B0C
:1002600001985946C0F14002504600F0D5F90646C3
:100270000D4650465946019A00F0DDF910EB080092
:100280006141002487EA115284EAE7731A4340D09F
:10029000009A62B3019A012A4FEA075215DC001B4B
:1002A00061EB02014FF0004202EA0752CDE9004241
:1002B000001C41F5801132462B4600F014FA03B0C1
:1002C000BDE8F08F40462146F9E7001B61EB0201D3
:1002D000001C41F5801300185B412018A2F500179F
:1002E00047EB030140EAD570B6196D4111E06D0886
:1002F0004FEA360645EAC0754FEA0752001B61EB2C
:100300000201001C41F5801149084FEA3000001934
:10031000514132462B4603B0BDE8F04F00F0D4B94E
:100320000098012240000023D0EB020263EBE0734F
:10033000009821464FEAE074B8EB000061EB04013D
:10034000E9E783F000435BE781F0004158E72DE9DE
:10035000FE4F81EA030404F0004421F000410094C0
:100360004FF0000B23F0004350EA01045ED052EA44
:1003700003045BD0C3F30A54C1F30A552C44A4F21E
:10038000F3340194A0FB0254C1F3130141F4801132
:10039000C3F3130343F4801301FB024400FB034E39
:1003A000840A970A44EA815447EA8357A4FB076802
:1003B00002958D0A05FB07854FEA932C04FB0C542C
:1003C0002705029D4FEA065847EA1637B5EB0805A0
:1003D0006EEB070C870E920E47EA811742EA8312F2
:1003E000A7FB0201B6EB0B0164EB00042B0D43EA03
:1003F0000C335E1844EB1C50DA465146E7FB020111
:10040000C5F313044FEA0B3343EA14534FEA0432A3
:10041000019C43EA0603A4F10C040294009CCDE97C
:1004200000B400F060F903B0BDE8F08F0020014691
:10043000F9E72DE9F04D81EA030404F0004B21F0C7
:10044000004514464FF0000A23F0004150EA05022F
:1004500020D054EA01021DD0C5F30A570246C5F365
:100460001303C1F31300C1F30A5640F4801543F49B
:100470008013A7EB0608101BD64608F2FD3873EB75
:10048000050002D308F1010801E092185B41B8F1C0
:10049000000F03DA00200146BDE8F08D00204FF484
:1004A0008011064684460EE0171B73EB050705D343
:1004B000121B63EB050306434CEA010C49084FEAA3
:1004C000300092185B4150EA0107EDD152EA030077
:1004D00012D082EA040083EA0501084305D0101B0C
:1004E000AB4106D20122002306E000224FF0004378
:1004F00002E06FF0010253101AEB06004CEB0851BA
:1005000010EB0A0041EB0B01BDE8F04D00F0DCB848
:1005100096230022114600F0A9B80EB540F23341EF
:1005200002910021CDE900110A460B4600F0DBF8EC
:1005300003B000BD00F0004220F00040C10DC0F348
:10054000160040F400007F2901DA00207047962948
:1005500003DCC1F19601C84001E096398840002AC9
:10056000F4D04042704720F00040C10DC0F31600A7
:1005700040F400007F2901DA00207047962903DC4F
:10058000C1F19601C840704796398840704700F025
:10059000004230F000400AD0C10D01F56071C0F397
:1005A000160042EA0151C20840071143704700207B
:1005B0000146704701F0004330B421F0004150EA99
:1005C000010206D00A0DA2F56072C1F31301002AE0
:1005D00002DC30BC00207047440F44EAC104C10073
:1005E000E01830BC00EBC25000F037B830B50B4615
:1005F000014600202022012409E021FA02F59D4253
:1006000005D303FA02F5491B04FA02F52844151E26
:10061000A2F10102F1DC30BD202A04DB203A00FA0D
:1006200002F1002070479140C2F1200320FA03F349
:10063000194390407047202A06DBCB17203A41FA35
:1006400002F043EAE07306E041FA02F3D040C2F15F
:10065000200291400843194670470029A8BF7047FF
:10066000401C490008BF20F00100704710B4B0FAE8
:1006700080FC00FA0CF050EA010404BF10BC704783
:1006800049B1CCF1200421FA04F411FA0CF118BF9D
:10069000012121430843A3EB0C01CB1D4FEA00616C
:1006A0004FEA102042BF002010BC704700EBC3503F
:1006B00010440029A4BF10BC7047401C490008BF6B
:1006C00020F0010010BC704710B5141E73F1000437
:1006D00008DA401C41F1000192185B411A4301D134
:1006E00020F0010010BD2DE9F04D92469B4611B15E
:1006F000B1FA81F202E0B0FA80F220329046FFF7C0
:100700008BFF04460F4640EA0A0041EA0B015346BC
:100710005A46084313D0114653EA010019D0C8F1D4
:100720004002504600F040F805460E4650465946F5
:100730004246FFF771FF084305D0012004E0204640
:100740003946BDE8F08D0020054346EAE0762C43AB
:1007500037430A986305E40AA0EB08000022FD0A6B
:1007600044EA47540A3002D500200146E9E7010572
:1007700010196941DDE9084500196941BDE8F04DEE
:10078000A2E70000064C074D06E0E06840F00103D8
:1007900094E8070098471034AC42F6D3FFF7AEFC5C
:1007A0005434000874340008202A04DB203A21FA6B
:1007B00002F00021704721FA02F3D040C2F120027A
:1007C000914008431946704721B1826842F0010206
:1007D000826003E0826822F00102826070470000BC
:1007E00000B593B04B4800F0B5F80121480201F084
:1007F0001DFB0121080601F0F9FA474800F064FEEC
:10080000444858300290454803900020049002204C
:1008100005900020069080200790400008908000FE
:10082000099020200A9000020B9000200C9002A951
:10083000394800F005FF0121374800F039FE012159
:10084000032001F0D3FA2020009003208DF804004B
:1008500000208DF807006946314800F053FF4FF43F
:100860008040009003208DF8040000208DF80700E0
:1008700069462C4800F046FF4020009001208DF88A
:1008800004008DF8070003208DF805006946244810
:1008900000F038FF4021224800F0A4FF012001F0C1
:1008A0007FFB00BF212001F061FB0028FAD001206E
:1008B0008DF838008DF8390000200F90119002203B
:1008C0008DF848000DA9134800F05EF800230122BE
:1008D0000521104800F082F80023022214210D485F
:1008E00000F07CF801210B4800F029F801210948AB
:1008F00000F01AF801210748FFF766FF00BF40210A
:10090000044800F037F80028F9D0024800F012F946
:1009100013B000BD002401400860024050000020D8
:10092000000002400004024021B1826842F480725B
:10093000826003E0826822F480728260704721B195
:10094000826842F40072826003E0826822F40072DE
:100950008260704710B504460548844207D10121E2
:10096000401501F073FA0021601501F06FFA10BD17
:10097000002401400246002013680B400BB1012007
:1009800000E000207047000030B502460020002340
:100990005068104C20400D790C6844EA052420432F
:1009A000506090680C4C2040D1E903542C438D6872
:1009B0002C434D7944EA450420439060106B20F0AD
:1009C000F8700C7D641EE4B2234340EA03501063C8
:1009D00030BD0000FFFEFFFCFDF7FFC0F0B5044690
:1009E0000D46002000211D2D11DDE06DA5F11E0634
:1009F00006EB4607072606FA07F18843A5F11E060F
:100A000006EB460603FA06F10843E06534E0132DD1
:100A100011DDE068A5F1140606EB4607072606FA85
:100A200007F18843A5F1140606EB460603FA06F122
:100A30000843E06020E0092D11DD2069A5F10A06D8
:100A400006EB4607072606FA07F18843A5F10A06D2
:100A500006EB460603FA06F1084320610CE06069E4
:100A600005EB4507072606FA07F1884305EB45061F
:100A700003FA06F108436061072A0FDA206C561E5C
:100A800006EB86071F2606FA07F18843561E06EB7B
:100A9000860605FA06F1084320644AE00D2A0FDABB
:100AA000E06BD61F06EB86071F2606FA07F1884380
:100AB000D61F06EB860605FA06F10843E06338E028
:100AC000132A11DAA06BA2F10D0606EB86071F268A
:100AD00006FA07F18843A2F10D0606EB860605FA31
:100AE00006F10843A06324E0192A11DA606BA2F131
:100AF000130606EB86071F2606FA07F18843A2F1C4
:100B0000130606EB860605FA06F10843606310E05B
:100B1000206BA2F1190606EB86071F2606FA07F1DD
:100B20008843A2F1190606EB860605FA06F108438A
:100B30002063F0BD816841F0804181607047000012
:100B400070B5002500BF012D03D100F0BDF800F005
:100B5000D9FA34A002F036F84FF4967000F090FD08
:100B600034A002F02FF84FF4967000F089FD35A004
:100B700002F028F84FF4967000F082FD00F0ACFB14
:100B800034A002F01FF84FF4967000F079FD38A100
:100B90003848FFF7CBFA3849086010E034A13548EF
:100BA000FFF7C4FA3449086034A13248FFF7BEFAAF
:100BB000344908600846006808B10125C3E72E489B
:100BC00000680028EAD02B4880782F49487000F050
:100BD00083FB2D4841782DA3382231A001F0F2FF8C
:100BE0004FF4967000F04CFD21A12248FFF79EFAC9
:100BF0002149086005E01EA11E48FFF797FA1E492B
:100C000008601D4800680028F5D000F065FB00244E
:100C100004E0002017490855601CC4B2642CF8DBBE
:100C200070BD000041542B4E534F434C3D300D0AD4
:100C30000000000041542B4E534F434C3D310D0AF0
:100C40000000000041542B4E534F434C3D320D0ADF
:100C50000000000041542B4E534F43523D44475235
:100C6000414D2C31372C333536382C310D0A0000EC
:100C70004F4B00004A010020000000204552524F17
:100C80005200000008000020C80000203237364320
:100C900034343141433233313132333400000000D7
:100CA00041542B4E534F53543D25632C34372E392A
:100CB000362E3131382E3131352C31323733382C14
:100CC00025632C25730D0A0010B5DBA001F07AFF17
:100CD0004FF4967000F0D4FCD9A1DA48FFF726FA59
:100CE000D949086000F0F8FA0EE000F0F5FAD2A059
:100CF00001F068FF4FF4967000F0C2FCD0A1D1481B
:100D0000FFF714FAD0490860CF4800680028ECD0FB
:100D10000120CE4981F87B00CDA001F053FF4FF4B4
:100D2000967000F0ADFCCDA1C648FFF7FFF9C649AB
:100D3000086000F0D1FA0EE000F0CEFAC4A001F095
:100D400041FF4FF4967000F09BFCC4A1BD48FFF733
:100D5000EDF9BD490860BC4800680028ECD0C0A08F
:100D600001F030FF4FF4967000F08AFCB4A1B54852
:100D7000FFF7DCF9B449086000F0AEFA0EE000F0CD
:100D8000ABFAB7A001F01EFF4FF4967000F078FCAC
:100D9000ABA1AC48FFF7CAF9AB490860AA480068A4
:100DA0000028ECD0B2A001F00DFF4FF4967000F0D7
:100DB00067FCB2A1A348FFF7B9F9A349086000F0A6
:100DC0008BFA0EE000F088FAA9A001F0FBFE4FF4C8
:100DD000967000F055FCA9A19A48FFF7A7F99A4927
:100DE0000860994800680028ECD0A7A001F0EAFE4E
:100DF0004FF4967000F044FCA6A19248FFF796F9D4
:100E00009149086008460068E8B1084600688079A2
:100E1000303809684979303901EB810100EB410034
:100E20008A49087008460078632808D106E09BA02C
:100E300001F0B2FE4FF4967000F022FCF7E70420B8
:100E4000824981F87B002BE000F046FA8EA001F089
:100E5000B9FE4FF4967000F013FC8EA17948FFF7AD
:100E600065F97949086008460068C8B10846006815
:100E70008079303809684979303901EB810100EB1C
:100E800041007249087008460078632808D106E0DE
:100E900082A001F081FE4FF4967000F0F1FBF7E7BD
:100EA000694800680028CFD000F016FA82A001F04F
:100EB00089FE4FF4967000F0E3FB82A16148FFF7D2
:100EC00035F96149086008460068002859D008468D
:100ED0000068C079303809688979303901EB8101BF
:100EE00000EB4100594981F87C0057480068807A3E
:100EF000303855490968497A303901EB810100EBF6
:100F00004100524981F87D004F480068407B3038ED
:100F10004D490968097B303901EB810100EB410043
:100F20004A4981F87E0048480068007C30384649CC
:100F30000968C97B303901EB810100EB41000830C1
:100F4000424981F87F0040480068C07C30383E4903
:100F50000968897C303901EB810100EB41003B4994
:100F600081F8800038480068807D3038364909684B
:100F7000497D303901EB810100EB4100334981F8B3
:100F8000810000F0A9F951A001F01CFE4FF4967009
:100F900000F076FB50A12B48FFF7C8F82A490860FB
:100FA00050A12848FFF7C2F85149086000F094F9B1
:100FB00014E000F091F945A001F004FE4FF49670A2
:100FC00000F05EFB44A11F48FFF7B0F81E4908601F
:100FD00044A11C48FFF7AAF8454908601A48006870
:100FE00018B9434800680028E3D042A001F0EAFDA8
:100FF0004FF4967000F044FB11A11248FFF796F8E9
:101000001149086000F068F90EE000F065F939A0B8
:1010100001F0D8FD4FF4967000F032FB08A10948AA
:10102000FFF784F8084908600748006818B9304895
:1010300000680028E9D010BD41540D0A00000000EE
:101040004F4B00004A01002000000020C800002093
:1010500041542B43494D490D0A00000034363000FD
:1010600041542B43474154543D310D0A00000000C8
:1010700041542B43474154543F0D0A002B434741F1
:1010800054543A310000000041542B4353510D0A8F
:10109000000000002B43535100000000D0C5BAC52A
:1010A000CBD1CBF7CAA7B0DCA3ACC7EBB2E9BFB4D6
:1010B000D4ADD2F2210D0A0041542B43434C4B3F97
:1010C0000D0A00002B43434C4B3A000041542B4384
:1010D000455245473F0D0A002B43455245473A309C
:1010E0002C3100002B43455245473A312C3100004A
:1010F0000400002041542B43455245473D310D0A21
:101100000000000010B532A001F05CFD4FF49670B5
:1011100000F0B6FA37A001F055FD4FF4967000F0DC
:10112000AFFA38A001F04EFD4FF4967000F0A8FA27
:1011300037A13A48FEF7FAFF3949086000F0CCF8C9
:101140000EE000F0C9F82FA001F03CFD4FF49670BE
:1011500000F096FA33A13148FEF7E8FF3049086005
:101160002F4800680028ECD031A001F02BFD4FF48F
:10117000967000F085FA31A12848FEF7D7FF28497C
:10118000086031A12548FEF7D1FF3249086000F020
:10119000A3F814E000F0A0F825A001F013FD4FF42F
:1011A000967000F06DFA25A11C48FEF7BFFF1C49A0
:1011B000086025A11948FEF7B9FF264908601848BC
:1011C000006818B9234800680028E3D010BD00006B
:1011D00041542B434744434F4E543D312C224950F8
:1011E000222C224855415745492E434F4D220D0A86
:1011F0000000000041542B43474154543D310D0A37
:101200000000000041542B43474154543F0D0A0055
:10121000202B43474154543A310000004A0100203A
:10122000000000202B43474154543A310000000095
:1012300041542B4353434F4E3F0D0A002B4353431E
:101240004F4E3A302C3100002B4353434F4E3A302F
:101250002C3000000400002070B504460D460F48F5
:1012600041782B4622460EA001F0ACFC4FF496705C
:1012700000F006FA14A11548FEF758FF144908605B
:1012800005E011A11148FEF751FF1149086010480F
:1012900000680028F5D000F01FF870BDC8000020DD
:1012A00041542B4E534F53543D25632C34372E3924
:1012B000362E3131382E3131352C31323733382C0E
:1012C00025732C25730D0A004F4B00004A010020A6
:1012D0000000002000BFFEE710B5034801F05CFCF1
:1012E00000200249087010BD4A010020450000207E
:1012F00010B5002400F028F804E0601CC4B20320FC
:1013000001F07CFE80210F4800F061FA08B1642CE6
:10131000F3DB642C01DB012010BD002404E0601C21
:10132000C4B2032001F06AFE8021064800F04FFAA3
:1013300008B9642CF3DB642C01DB0120ECE700200E
:10134000EAE70000000002401CB580200090002069
:101350008DF8040001208DF807006946014800F06F
:10136000D1F91CBD000002401CB580200090012076
:101370008DF804008DF807006946024800F0C2F9B4
:101380001CBD00000000024010B50121084600F01D
:101390002DFD00F06BF8FFF7ABFF10BD10B500247A
:1013A00004E0601CC4B2032001F028FE8021104834
:1013B00000F00DFA08B1642CF3DB002404E0601C9B
:1013C000C4B2032001F01AFE8021094800F0FFF9A1
:1013D00008B9642CF3DB322001F010FE80210448B0
:1013E00000F0F5F908B1012010BD0020FCE7000075
:1013F0000000024070B50024002506E06006040EDF
:10140000FFF7CCFF0443681CC5B2082DF6DB20466D
:1014100070BD7CB505460E4600F028F8FFF768FF62
:10142000F8B9002405E0FFF7E5FF0DF80400601CA3
:10143000C4B2052CF7DB9DF800009DF801100844AC
:101440009DF8021008449DF8031008449DF804100C
:10145000884208D19DF8000030709DF80200287085
:1014600001E001207CBD0020FCE7000010B5FFF783
:101470007BFF8021064800F0B3F9142001F09EFDA7
:101480008021034800F0AEF91E2001F0B7FD10BD29
:101490000000024000F0805111B90349486001E0AA
:1014A0000249086070470000006002400464024086
:1014B00021B1026842F00102026004E002684FF6C6
:1014C000FE731A400260704701684FF6FE721140C9
:1014D00001600021016041608160C1604B49884228
:1014E00008D14A490839496841F00F01474A083A8A
:1014F00051608AE045491431884208D1434908398E
:10150000496841F0F001414A083A51607DE03F49A5
:101510002831884208D13D490839496841F4706151
:101520003A4A083A516070E038493C31884208D163
:1015300036490839496841F47041344A083A5160E3
:1015400063E032495031884208D13049083949684E
:1015500041F470212D4A083A516056E02B4964311C
:10156000884208D129490839496841F47001274A5D
:10157000083A516049E025497831884208D1234929
:101580000839496841F07061204A083A51603CE0EE
:101590001F49884206D1011F096841F00F01021F4F
:1015A000116032E01A491431884208D11849091FE4
:1015B000096841F0F001164A121F116025E0144934
:1015C0002831884208D11249091F096841F4706125
:1015D0000F4A121F116018E00D493C31884208D1B2
:1015E0000B49091F096841F47041094A121F116033
:1015F0000BE007495031884207D10549091F0968A6
:1016000041F47021024A121F1160704708600240C5
:101610000864024001460020002201F0805313B903
:10162000054B1A6801E0054B1A6802EA01030BB189
:10163000012000E00020704700600240006402408A
:1016400010B50022026847F6F0739A430C6A8B6863
:1016500023430C6923434C6923438C692343CC699E
:1016600023434C6A23438C6A23431A430260CB68AA
:1016700043600B6883604B68C36010BD7047000017
:10168000014600200D4A12884A434FF0E0235A6178
:1016900000229A6101221A6100BF4FF0E022106916
:1016A00000F001021AB100F48032002AF5D00022C5
:1016B0004FF0E0231A619A61704700004C0000204F
:1016C00010B54FF4805000F011F828B10120034903
:1016D0000870000300F004F810BD00004E00002068
:1016E00001490860704700001404014001460020D1
:1016F000034A12680A400AB1012000E00020704746
:1017000014040140F0B502460B46002100240025D8
:10171000002000BF35E0012606FA01F41E6806EA43
:101720000405A5422CD110684F000326BE40B043EB
:101730001E794F00BE40304310601E79012E02D04A
:101740001E79022E12D190684F000326BE40B0438E
:101750005E794F00BE4030439060908801268E40F5
:10176000B0439E798E40B6B230439080D0684F002F
:101770000326BE40B043DE794F00BE403043D06008
:10178000491C1029C7D3F0BDF0B5002300244D0734
:10179000ED0E02FA05F3CE1000F1200555F82650A3
:1017A0004E07F70E0F26BE40B543CF1000F12006BE
:1017B00046F82750CE1000F1200555F8265045EA8E
:1017C0000304CE1000F1200545F82640F0BD024686
:1017D0000020138A0B400BB1012000E0002070476D
:1017E0004183704701837047828A4A4082827047F2
:1017F0001CB5694601A8FFF70CFE00F0AFF93320D5
:101800001D4981F82E00312081F82F00332081F806
:10181000300081F8310081F83200612081F8330016
:10182000332081F834009DF800000A2190FBF1F08C
:1018300090FBF1F201FB120030300F4981F83500C6
:10184000332081F836009DF800000A2190FBF1F268
:1018500001FB12003030084981F83700322081F84E
:101860003800302081F8390000F054F8024903A014
:10187000FFF7F2FC1CBD00006400002034370000BC
:101880001CB5694601A8FFF7C4FD00F067F93320D5
:101890001E4981F82E00312081F82F00332081F875
:1018A0003000322081F83100332081F8320061208D
:1018B00081F83300332081F834009DF804000A21B8
:1018C00090FBF1F090FBF1F201FB120030300F4978
:1018D00081F83500332081F836009DF804000A2194
:1018E00090FBF1F201FB12003030084981F837001B
:1018F000322081F83800302081F8390000F00AF8F1
:10190000024903A0FFF7A8FC1CBD000064000020F2
:101910003437000000B587B006A9002000F080FC35
:101920009DF81A0000909DF819309DF8182048A1E4
:1019300003A801F057F905A9002000F037FC9DF835
:10194000160000909DF815309DF8172040A101A8C1
:1019500001F048F93220424981F83A00632081F8C9
:101960003B00332081F83C009DF8040081F83D00E5
:10197000332081F83E009DF8050081F83F003220B9
:1019800081F84000642081F84100332081F8420052
:101990009DF8060081F84300332081F844009DF84B
:1019A000070081F84500322081F84600642081F864
:1019B0004700332081F848009DF8080081F849006D
:1019C000332081F84A009DF8090081F84B0032204D
:1019D00081F84C00302081F84D00332081F84E0012
:1019E0009DF80C0081F84F00332081F850009DF8DD
:1019F0000D0081F85100332081F85200612081F8F8
:101A00005300332081F854009DF80E0081F85500F2
:101A1000332081F856009DF80F0081F857003320DD
:101A200081F85800612081F85900332081F85A006C
:101A30009DF8100081F85B00332081F85C009DF870
:101A4000110081F85D00002081F85E0007B000BD44
:101A500025303264253032642530326400000000C5
:101A60006400002010B50220FFF7D4FD10B1022061
:101A7000FFF710FD024804882046FEF749FD10BD1F
:101A8000500000202DE9FE4F40212448FFF7A8FE1A
:101A90004FF48C7001F0B2FAFFF7E4FF0446FEF752
:101AA00062FD0290282001F0A9FA40211B48FFF7AF
:101AB00099FE42F2D05001F0A1FA0298FEF72DFDF6
:101AC00082464FF06632164BFEF741FC80460022FC
:101AD000144BFEF7AEFC064600224FF08043FEF7A3
:101AE00036FC0446FEF766FD01900198FEF74FFDB7
:101AF00006460D4A0D4BFEF72AFC80460C4A0D4B5C
:101B0000FEF71FFC044600220B4BFEF720FC82462A
:101B1000FEF750FD00900098BDE8FE8F00000240E7
:101B200066660A400000B040C3F5285C8FC2C53F1E
:101B30009A9999999999B93F00408F4010B5022020
:101B4000FFF768FD10B10220FFF7A4FC02484488AB
:101B50002046FEF7DDFC10BD5000002070B52F229E
:101B600060237620732136245C4D2C7039246C70F0
:101B70003224AC706324EC7033242C710A2492FB61
:101B8000F4F40A2594FBF5F605FB16443034534D66
:101B90006C713324AC710A2492FBF4F504FB152418
:101BA00030344E4DEC7132242C7265246C72332427
:101BB000AC720A2493FBF4F40A2594FBF5F605FBBA
:101BC00016443034454DEC7233242C730A2493FBB5
:101BD000F4F504FB15343034404D6C733224AC738F
:101BE0006524EC7333242C74642490FBF4F40A25EC
:101BF00094FBF5F605FB16443034384D6C743324F1
:101C0000AC740A2490FBF4F40A2594FBF5F605FB6A
:101C100016443034314DEC7433242C750A2490FB77
:101C2000F4F504FB150430342C4D6C753224AC757E
:101C30006524EC7533242C76642491FBF4F40A2596
:101C400094FBF5F605FB16443034244D6C763324B2
:101C5000AC760A2491FBF4F40A2594FBF5F605FB17
:101C6000164430341D4DEC7633242C770A2491FB36
:101C7000F4F504FB15143034184D6C773224AC772E
:101C80006324EC77372485F82040332485F82140FD
:101C9000362485F82240352485F82340362485F8FB
:101CA0002440652485F82540372485F826403324D0
:101CB00085F82740362485F82840662485F8294091
:101CC000372485F82A40322485F82B40332485F8C0
:101CD0002C40612485F82D4070BD00006400002078
:101CE00000BFFEE71CB50121084600F07FF8012087
:101CF0008DF8040048F20200009069460148FFF7A1
:101D000001FD1CBD000002402DE9F041002400252A
:101D100012E0FFF713FF07462046FEF7F9FB804667
:101D20003946FEF715FA0646FEF71DFC0446052067
:101D300001F044F9681CC5B20A2DEADB0A20B4FBA5
:101D4000F0F4B4F57A6F01D94FF47A642820B4FB2B
:101D5000F0F0C0F16400C0B2BDE8F08100BFFEE762
:101D60007047000070B5002100230F22C4781CB317
:101D7000174C246804F4E064C4F5E064C4F307215C
:101D8000C1F10404E3B20A4144789C40E1B2847892
:101D9000144021430C07210E0E4C05786155047840
:101DA00004F01F050124AC4005786D11AD0005F16C
:101DB000E025C5F8004109E0047804F01F0501247E
:101DC000AC40054D0678761145F8264070BD000000
:101DD0000CED00E000E400E080E100E00149086271
:101DE0007047000000000E427047000029B1064A0B
:101DF00012680243044B1A6004E0034A12688243EB
:101E0000014B1A60704700001C38024029B1064A95
:101E100012680243044B1A6004E0034A12688243CA
:101E2000014B1A60704700002438024029B1064A6D
:101E300012680243044B1A6004E0034A12688243AA
:101E4000014B1A60704700002038024029B1064A51
:101E500012680243044B1A6004E0034A126882438A
:101E6000014B1A607047000014380240F0B50021A1
:101E700000220023002600240025374F3F6807F08A
:101E80000C0131B1042912D0082913D00C2934D106
:101E900013E0314F3F1F3F68C7F342356F1C4FF0CF
:101EA000010C0CFA07FC4FEACC37076033E02B4FEC
:101EB000076030E02A4F07602DE0274F3F6807F4A6
:101EC0007012254F3F6807F44003264F07EB9247F7
:101ED0003A78012707EB93531F4F3F6807F480368A
:101EE0002EB91E4F5743B7FBF3F7076004E01C4FB2
:101EF0005743B7FBF3F707600DE0174F3F1F3F68ED
:101F0000C7F342356F1C4FF0010C0CFA07FC4FEA87
:101F1000CC37076000BF00BF0F4F3F6807F0F001EC
:101F20000909114F7C5C0768E74047600A4F3F682A
:101F300007F4E061090A0C4F7C5C4768E740876062
:101F4000054F3F6807F46051C90A074F7C5C47683A
:101F5000E740C760F0BD0000083802400024F400EC
:101F600000127A000D0000201600002010B5014676
:101F70000022002300204A11012A02D1074C2368C5
:101F800002E0064C3434236801F01F02012494401F
:101F90001C400CB1012000E0002010BD00380240C0
:101FA0000149086070470000000047420021024AD2
:101FB00011701146087070473538024001490860B9
:101FC00070470000D8064742002100F44032B2F5C5
:101FD000403F08D10C4A116821F0C04100F0C042D6
:101FE0001143094A1160084A3432126822F440321F
:101FF000054B34331A601A46126800F440331A4312
:10200000014B34331A6070470038024001490860C0
:1020100070470000DC06474210B54FF4807000F0B6
:10202000EBF8012805D1000200F028F803A000F029
:10203000C9FD4FF40030FFF753FB10BD414C415236
:102040004D2041210D0A0000014600BF080900EBA8
:102050008000420001F00F001044C0B270470146FA
:10206000002204E0501CC2B2A1F10A00C1B20A2948
:10207000F8DA100741EA106070470000C0F3100161
:1020800041F08001044A126802F0800262EA010114
:10209000014A1160704700000C2800403EB541F62F
:1020A000FF7401210807FFF7B1FE0120FFF796FE3C
:1020B0000120FFF7ABFF0020FFF7A8FF002000F092
:1020C00009F945F25101884239D00120FFF76EFF2E
:1020D00004E0601C04B20A2000F070FF4920FFF702
:1020E00045FF0028F5D00CB901203EBD4FF48030EB
:1020F000FFF76AFF0120FFF761FF7F200190FF20BB
:10210000029000200090684600F0B2F80D4B93F862
:10211000812093F8801093F87F00002300F0C8F925
:10212000084B93F87E2093F87D1093F87C000223EF
:1021300000F0ACF945F25101002000F0FBF900205D
:10214000D3E70000C800002008B50022009200205C
:102150000021104A126802F04002CAB9421E0D4B1B
:102160001A6000BF0B4A126802F04001009A521C2C
:102170000092009AB2F5005F01D00029F2D0054A22
:10218000126802F040020AB1012002E0002000E0E3
:10219000012008BD0C2800400348006820F08000A2
:1021A00001490860704700000C28004070B50646E1
:1021B0000C4600250E4800680E4900EA0105280C6F
:1021C000E070C5F30420607005F03F00A070C5F317
:1021D000423020705EB9E078FFF736FFE07060783B
:1021E000FFF732FF6070A078FFF72EFFA07070BD80
:1021F000042800403FFFFF0010B5014600200022E8
:10220000054B1B68054C03EA040202EA01030BB10B
:10221000012000E0002010BD0C2800407FFF0100DD
:1022200070B506460C4600250F4800680F4900EAC5
:102230000105C5F305402070C5F30620607005F068
:102240007F00A07005F48000000CE0705EB920787B
:10225000FFF7FAFE20706078FFF7F6FE6070A07856
:10226000FFF7F2FEA07070BD002800407F7F7F0066
:1022700030B504460025CA2015490860532008607F
:10228000FFF762FF00B91DE011481C38006820F01C
:1022900040000F491C39086008460068216808435F
:1022A0000B491C3908600A491439A06808600846BF
:1022B0000068A18840EA0140054914390860FFF729
:1022C0006BFF0125FF2002490860284630BD000051
:1022D0002428004008B501460020009004480090E2
:1022E000009800EB810000900098006808BD000095
:1022F000502800402DE9F04105460C4600260027F5
:102300004DB9607800F01000102804D1607820F0FA
:1023100010000A30607005B908E06078FFF794FE9D
:102320000646A078FFF790FE064600BF55B1E0785C
:102330000004617840EA0120A1780843217840EA4E
:10234000413611E0E078FFF78AFE4FEA00486078F6
:10235000FFF785FE48EA0028A078FFF780FE48EAEC
:102360000008207848EA4036CA2012490860532005
:102370000860FFF7E9FE08B9002714E00E48304076
:102380000C4920390860FFF707FF0A481C3800682D
:1023900000F0200030B900F09DF808B9002702E0F5
:1023A000012700E00127FF20024908603846BDE808
:1023B000F0810000242800403FFFFF002DE9F0419C
:1023C00005460C46002600274DB92E48006800F04F
:1023D000400000B102E00020E07000BF0DE029489D
:1023E000006800F0400020B12078FFF72DFE06467F
:1023F00002E00020E07000BF00BF55B1207800046B
:10240000617840EA0120A1780843E17840EA01467A
:1024100011E02078FFF723FE4FEA00486078FFF7CD
:102420001EFE48EA0028A078FFF719FE48EA0008D7
:10243000E07848EA0046CA2012491C31086053205F
:102440000860FFF781FE08B9002713E00E4830400E
:102450000C4908390860FFF79FFE0A48006800F041
:10246000200030B900F036F808B9002702E0012753
:1024700000E00127FF2003491C3108603846BDE811
:10248000F0810000082800407F7F7F00F8B50446F7
:102490000D4617461E468DF802708DF801508DF8D6
:1024A00000608DF8034069460020FFF723FFF8BD68
:1024B000F8B504460D4617461E468DF800408DF8C7
:1024C00001508DF802708DF8036069460020FFF717
:1024D00075FFF8BD08B50022009200200021CA2235
:1024E000134B1A6053221A60114A183A126822F0EC
:1024F000A0020F4B183B1A6000BF0D4A183A126831
:1025000002F02001009A521C0092009AB2F5004F8E
:1025100001D00029F1D0064A183A126802F02002D0
:102520000AB1012000E00020FF22014B1A6008BD23
:102530002428004008B500220092044A0092009A24
:1025400002EB80020092009A116008BD5028004002
:102550007047000070B50024FFF7D6FB0546C5F1B3
:10256000640421461F4800F0E8F9FFF7F7FA33202A
:102570001D4981F82E00312081F82F00332081F889
:102580003000312081F83100332081F832006120A1
:1025900081F83300332081F834000A20B4FBF0F0D6
:1025A0000A21B0FBF1F201FB120030300E4981F834
:1025B0003500332081F836000A20B4FBF0F100FB2F
:1025C00011403030084981F83700322081F8380056
:1025D000302081F83900FFF79DF9034903A0FEF789
:1025E0003BFE70BD00040040640000203437000052
:1025F0000CB50020019000903E48006840F4803007
:102600003C49086000BF3B48006800F4003000907F
:102610000198401C0190009818B90198B0F5A04F9E
:10262000F1D13448006800F4003010B1012000906E
:1026300001E0002000900098012859D12E48006840
:1026400040F004002C4908600846006840F0020091
:1026500008600846006840F0010008602548243002
:10266000006840F08050234924310860C814234991
:10267000086000BF2148406800F010000028F9D130
:102680001C48083000681B4908310860084600688B
:1026900008600846006808600846006820F47D006D
:1026A00008600846006840F411000860114800689E
:1026B00040F080700F49086000BF0E48006800F0CD
:1026C00000700028F9D00B480830006820F00300A3
:1026D0000849083108600846006840F003000860B7
:1026E00000BF04480830006800F00C000C28F8D146
:1026F0000CBD000000380240003C02400070004069
:10270000042808D14FF0E021096941F004014FF09D
:10271000E022116107E04FF0E021096921F0040196
:102720004FF0E022116170477047000010B5154866
:10273000006840F48070134908601248083000684F
:10274000114908400F49083108600E4800680F49D8
:1027500008400C4908600846006820F480200860A2
:1027600008480830006820F47D00064908310860F8
:102770000020091D0860FFF73BFF4FF0006004498F
:10278000086010BD003802400CC0FF88FEFFFEEE5E
:1027900008ED00E010B501210D4800F0B4F8A8B133
:1027A00001210B4800F0A0F80A480078401C0949B4
:1027B000087008460078012808DB00200870012016
:1027C000054908700021024800F091F810BD000092
:1027D0000004004047000020480000207FB5054667
:1027E0000C4601210220FFF711FB0295A0B2ADF8C3
:1027F00004000020ADF80C00ADF8060001A90E4859
:1028000000F09EF8012211460B4800F08DF81D20C3
:102810008DF8000000208DF8010003208DF80200E3
:1028200001208DF803006846FFF79CFA002102485A
:1028300000F05DF87FBD00000004004010B50121EC
:102840000D4800F060F8B0B101210B4800F04CF8E1
:102850000A480078401C09490870094890F87B0034
:102860000978884207DC0020044908704FF40041D1
:102870000448FEF7B9FF10BD0008004049000020E1
:10288000C8000020000002407FB505460C4601212B
:102890000420FFF7BBFA0295A0B2ADF804000020B7
:1028A000ADF80C00ADF8060001A90E4800F048F89C
:1028B000012211460B4800F037F81E208DF8000069
:1028C00001208DF8010003208DF8020001208DF811
:1028D00003006846FFF746FA0121024800F007F8B6
:1028E0007FBD000000080040CA430282704721B14A
:1028F000028842F00102028004E002884FF6FE7373
:102900001A400280704730B50246002000230024A0
:10291000158A05EA0103958905EA010413B10CB192
:10292000012000E0002030BD1AB183890B43838170
:1029300002E083898B438381704781637047000085
:1029400000220288B0F1804F08D0104B984205D089
:102950000F4B984202D00F4B984204D14FF68F7321
:102960001A404B881A430C4B984207D00B4B9842A5
:1029700004D04FF6FF431A400B891A4302804B687C
:10298000C3620B88038501238382704700040040E3
:1029900000080040000C00400010004000140040FF
:1029A00010B540F22551084800F03AF858B10648F1
:1029B00000F0ECF8C1B2054802780078401C034BE7
:1029C00018700348815410BD0038014046000020B3
:1029D000AE01002010B540F22551084800F020F863
:1029E00058B1064800F0D2F8C1B205480278007824
:1029F000401C034B18700348815410BD0048004030
:102A0000450000204A01002021B1828942F4005291
:102A1000828104E082894DF6FF731A4082817047FB
:102A200070B50246002400230025002040F66A16F7
:102A3000B14200D100BFC1F3421501F01F030126CE
:102A400006FA03F3012D02D19689334006E0022DE8
:102A500002D1168A334001E0968A33400C120126D7
:102A600006FA04F41688344013B10CB1012000E0DA
:102A7000002070BDF0B5034600240026002500208C
:102A800040F66A17B94200D100BF1846C1F342149C
:102A900001F01F06012707FA06F5012C01D10C30C1
:102AA00004E0022C01D1103000E014301AB10768A4
:102AB0002F43076002E00768AF430760F0BD0000E6
:102AC0002DE9FF4705460E460024A14600BFA0465B
:102AD000B08900B100BF2C8A24F44054F08804432C
:102AE0002C82AC8941F20C608443B0883189084360
:102AF000718908430443AC81AC8A24F44074B089E2
:102B00000443AC826846FFF7B1F91F48854202D101
:102B1000DDF80C9001E0DDF80890A88900F4004091
:102B200040B109EBC90000EB091031684900B0FB66
:102B3000F1F707E009EBC90000EB091031688900E3
:102B4000B0FBF1F76420B7FBF0F004012009642129
:102B500001FB1078A88900F4004040B1322000EB5E
:102B6000C800B0FBF1F000F00700044308E0322099
:102B700000EB08106421B0FBF1F000F00F000443FB
:102B80002C81BDE8FF87000000380140014688889D
:102B9000C0F30800704700000CE000BF0749098837
:102BA00001F040010029F9D0017849B2034A121D11
:102BB0001180401C01780029EFD170470038014096
:102BC00000BFFEE70FB4054B10B503A9044A0298F5
:102BD00000F02CF810BC5DF814FB0000E130000898
:102BE000600000200FB4084B10B504A902AA039896
:102BF00000F01CF8044602A9002000F0B8F92046B5
:102C000010BC5DF814FB00006F2F000802E008C83C
:102C1000121F08C1002AFAD170477047002001E056
:102C200001C1121F002AFBD1704700002DE9FF4FA0
:102C30008BB088460546002606E025280BD0DDE946
:102C40000D1290476D1C761C28780028F5D10FB026
:102C50003046BDE8F08F0024A146A2460122AE49CD
:102C600000E0044315F8013F203B02FA03F008425C
:102C7000F7D128782A2810D06FF02F022878A0F1F9
:102C80003001092915D809EB890102EB410144F013
:102C9000020400EB01096D1CF0E758F8041B5FEA21
:102CA000010903D544F40054C9F1000944F00204B9
:102CB0006D1C28782E2817D115F8010F44F0040454
:102CC0002A280ED06FF02F022878A0F130010929B0
:102CD0000AD80AEB8A0102EB410100EB010A6D1CE4
:102CE000F2E758F804AB6D1C28786C280FD006DC8E
:102CF0004C2817D068280DD06A2814D104E0742815
:102D000010D07A280FD10DE044F400140AE044F406
:102D1000801401E044F440146978814202D104F542
:102D200080146D1C6D1C2878692865D006DC00288D
:102D30008DD0632827D0642806D15DE06E2808D0A6
:102D400073282AD0752877D0DDE90D129047761CBC
:102D5000E0E0C4F30250022809D003280DD0D8F8CF
:102D6000001004280DD00E6008F10408D2E0D8F855
:102D70000010F217C1E90062F6E7D8F800100E80E3
:102D8000F2E70E70F0E718F8041B8DF80010002031
:102D90008DF80100EB46012003E058F804BB4FF02A
:102DA000FF3061074FF0000701D40AE07F1C574550
:102DB0000DDA8742FADB1BF807100029F6D106E08E
:102DC0007F1C8742FCDB1BF807100029F8D1DDE9E6
:102DD0000D23A9EB07008146214600F0B1F83044ED
:102DE000C61904E0DDE90D121BF8010B90477F1EA8
:102DF000F8D22146484688E058F8040BC4F3025143
:102E00004FF00A0B032900D100B2042900D140B2CF
:102E1000002802DA40422D2102E0210505D52B21B0
:102E20008DF82410012104E006E0E10710D02021F4
:102E3000F6E708AF089113E058F8040BC4F3025109
:102E40004FF00A0B032900D180B2042900D1C0B28F
:102E50000021EEE75946FDF7C9FB303107F8011DA7
:102E60000028F7D1ADEB070000F1200B600702D579
:102E700024F4803401E04FF0010ADA4502DDAAEBC8
:102E80000B0000E00020824600EB0B010898014493
:102E9000A9EB01000A90E00306D4DDE90D232146E9
:102EA0000A9800F04DF806444FF0000908E009A91F
:102EB00011F80900DDE90D12904709F10109761CAE
:102EC00008998945F3DBE0030CD5DDE90D232146A4
:102ED0000A9800F035F8064404E0DDE90D123020D0
:102EE0009047761CBAF10001AAF1010AF5DC05E071
:102EF000DDE90D1217F8010B9047761CBBF10001BC
:102F0000ABF1010BF4DC0A982146DDE90D2300F05A
:102F100005F806446D1C97E6092801002DE9F041EB
:102F2000044600251E461746880404D405E03946A9
:102F30002020B0476D1C641EF9D52846BDE8F081FD
:102F40002DE9F041044600251E469046C80301D5F0
:102F5000302700E02027880404D505E041463846A4
:102F6000B0476D1C641EF9D52846BDE8F0810A689B
:102F7000531C0B601070704710B56FF00400FFF722
:102F8000BFFB0A4800680A49B0FBF1F00949087024
:102F90000846007800EB4001C1EBC0104FF6FF710E
:102FA00001EAC0000449088010BD0000280000208C
:102FB00000127A004A0000204C0000200146002048
:102FC0000D4A12884A434FF0E0235A6100229A6169
:102FD00001221A6100BF4FF0E022106900F00102E7
:102FE0001AB100F48032002AF5D000224FF0E0231D
:102FF0001A619A61704700004C00002001460020D1
:103000000D4A12784A434FF0E0235A6100229A6138
:1030100001221A6100BF4FF0E022106900F00102A6
:103020001AB100F48032002AF5D000224FF0E023DC
:103030001A619A61704700004A00002070B5FEF7DF
:1030400021FD05462846FDF775FA0446FEF786FD84
:103050003320214981F82E00312081F82F003320C0
:1030600081F83000372081F83100332081F83200B8
:10307000612081F83300332081F83400642094FB10
:10308000F0F00A2190FBF1F201FB120030301249FE
:1030900081F83500332081F836000A2094FBF0F0E7
:1030A0000A2190FBF1F201FB120030300A4981F84D
:1030B0003700332081F838000A2094FBF0F100FB40
:1030C00011403030044981F83900FEF723FC0249F1
:1030D00002A0FEF7C1F870BD640000203437000084
:1030E00000BF054A128802F04002002AF9D042B21D
:1030F000014B1B1D1A807047004800404248006881
:103100004FF47A72B0FBF2F1481EB0F1807F01D328
:1031100001201BE0481E4FF0E022506150170F22A3
:10312000002807DA13071D0E384B00F00F04241F88
:103130001D5503E013071C0E354B1C5400BF002027
:103140004FF0E022906107201061002008B100BF1D
:10315000FEE7FFF711FFFEF7C5FD00BFFEF714F90C
:103160000028FBD14FF4165000F014F94FF416501C
:1031700000F052F84FF4165000F0ACF840F67F41E2
:1031800040F2F310FFF72AFB40F67F4141F287300F
:10319000FFF77AFBFDF798FDFDF7B4FFFDF7D0FCD4
:1031A000FDF71EFBFEF77AFF2CE0FEF769FB4FF4FC
:1031B000FA70FFF703FF4FF4FA70FFF7FFFEFEF718
:1031C00017FB4FF4FA70FFF7F9FE4FF4FA70FFF7B0
:1031D000F5FEFFF733FF4FF4FA70FFF7EFFE4FF401
:1031E000FA70FFF7EBFEFFF7B5F94FF4FA70FFF74F
:1031F000E5FE4FF4FA70FFF7E1FE4FF40071054869
:10320000FEF7F2FAD1E700002800002018ED00E0F8
:1032100000E400E00004024010B588B0044601213B
:103220000846FEF7E3FD01214804FEF7EFFD072203
:1032300002212648FEF7A8FA072203212348FEF7B9
:10324000A3FA0420069002208DF81C008DF81D00C2
:1032500000208DF81E0001208DF81F0006A91B48D4
:10326000FEF750FA0820069002208DF81C0006A9EF
:103270001648FEF747FA26208DF8040003208DF843
:10328000050001208DF806008DF8070001A8FEF763
:1032900069FD02940020ADF80C00ADF80E00ADF809
:1032A0001000ADF814000C20ADF8120002A9084877
:1032B000FFF706FC012240F225510548FFF7DAFB33
:1032C00001210348FFF7A0FB08B010BD0000024039
:1032D0000044004010B588B0044601210220FEF7EA
:1032E00085FD01218804FEF791FD07220A21274868
:1032F000FEF74AFA07220B212448FEF745FA4FF45D
:103300008060069002208DF81C008DF81D000020C2
:103310008DF81E0001208DF81F0006A91B48FEF73E
:10332000F1F94FF40060069002208DF81C0006A908
:103330001648FEF7E7F927208DF8040001208DF8E4
:1033400005008DF806008DF8070001A8FEF70AFDBC
:1033500002940020ADF80C00ADF80E00ADF810009E
:10336000ADF814000C20ADF8120002A90848FFF7D0
:10337000A7FB012240F225510548FFF77BFB012105
:103380000348FFF741FB08B010BD000000040240F5
:103390000048004010B588B0044601210846FEF7F9
:1033A00025FD01218803FEF741FD07220921274859
:1033B000FEF7EAF907220A212448FEF7E5F94FF45F
:1033C0000070069002208DF81C008DF81D00002072
:1033D0008DF81E0001208DF81F0006A91B48FEF77E
:1033E00091F94FF48060069002208DF81C0006A928
:1033F0001648FEF787F925208DF8040003208DF884
:1034000005008DF8060001208DF8070001A8FEF7E1
:10341000A9FC02940020ADF80C00ADF80E00ADF848
:103420001000ADF814000C20ADF8120002A90848F5
:10343000FFF746FB012240F225510548FFF71AFB32
:1034400001210348FFF7E0FA08B010BD0000024078
:1034500000380140743400080000002064000000BF
:103460000C2C0008D834000864000020B4050000CB
:103470001C2C0008000000000000000000000000FC
:1034800000030406080C10182030000000000102A0
:103490000304010203040607080900000048E801CC
:1034A000030406080C101820300000000000000083
:1034B00000010203040607080900000000000000E4
:1034C00000000000000000000000000000000000FC
:0834D0000000000000000000F4
:04000005080000F5FA
:00000001FF
